{
  "contractName": "CarbonCreditExchange",
  "abi": [
    {
      "anonymous": false,
      "inputs": [
        {
          "indexed": false,
          "internalType": "uint256",
          "name": "id",
          "type": "uint256"
        }
      ],
      "name": "CreditApproved",
      "type": "event"
    },
    {
      "anonymous": false,
      "inputs": [
        {
          "indexed": false,
          "internalType": "uint256",
          "name": "id",
          "type": "uint256"
        },
        {
          "indexed": false,
          "internalType": "string",
          "name": "project",
          "type": "string"
        },
        {
          "indexed": false,
          "internalType": "uint256",
          "name": "amount",
          "type": "uint256"
        },
        {
          "indexed": true,
          "internalType": "address",
          "name": "owner",
          "type": "address"
        }
      ],
      "name": "CreditIssued",
      "type": "event"
    },
    {
      "anonymous": false,
      "inputs": [
        {
          "indexed": false,
          "internalType": "uint256",
          "name": "id",
          "type": "uint256"
        }
      ],
      "name": "CreditRevoked",
      "type": "event"
    },
    {
      "anonymous": false,
      "inputs": [
        {
          "indexed": false,
          "internalType": "uint256",
          "name": "id",
          "type": "uint256"
        },
        {
          "indexed": true,
          "internalType": "address",
          "name": "from",
          "type": "address"
        },
        {
          "indexed": true,
          "internalType": "address",
          "name": "to",
          "type": "address"
        }
      ],
      "name": "CreditTransferred",
      "type": "event"
    },
    {
      "inputs": [
        {
          "internalType": "uint256",
          "name": "",
          "type": "uint256"
        }
      ],
      "name": "credits",
      "outputs": [
        {
          "internalType": "uint256",
          "name": "id",
          "type": "uint256"
        },
        {
          "internalType": "string",
          "name": "project",
          "type": "string"
        },
        {
          "internalType": "uint256",
          "name": "amount",
          "type": "uint256"
        },
        {
          "internalType": "address",
          "name": "owner",
          "type": "address"
        },
        {
          "internalType": "uint256",
          "name": "expirationDate",
          "type": "uint256"
        },
        {
          "internalType": "bool",
          "name": "isRevoked",
          "type": "bool"
        }
      ],
      "stateMutability": "view",
      "type": "function"
    },
    {
      "inputs": [],
      "name": "nextCreditId",
      "outputs": [
        {
          "internalType": "uint256",
          "name": "",
          "type": "uint256"
        }
      ],
      "stateMutability": "view",
      "type": "function"
    },
    {
      "inputs": [
        {
          "internalType": "uint256",
          "name": "",
          "type": "uint256"
        }
      ],
      "name": "transactions",
      "outputs": [
        {
          "internalType": "uint256",
          "name": "creditId",
          "type": "uint256"
        },
        {
          "internalType": "string",
          "name": "action",
          "type": "string"
        },
        {
          "internalType": "address",
          "name": "from",
          "type": "address"
        },
        {
          "internalType": "address",
          "name": "to",
          "type": "address"
        },
        {
          "internalType": "uint256",
          "name": "timestamp",
          "type": "uint256"
        }
      ],
      "stateMutability": "view",
      "type": "function"
    },
    {
      "inputs": [
        {
          "internalType": "string",
          "name": "_project",
          "type": "string"
        },
        {
          "internalType": "uint256",
          "name": "_amount",
          "type": "uint256"
        },
        {
          "internalType": "uint256",
          "name": "_expirationPeriod",
          "type": "uint256"
        }
      ],
      "name": "issueCredit",
      "outputs": [],
      "stateMutability": "nonpayable",
      "type": "function"
    },
    {
      "inputs": [
        {
          "internalType": "uint256",
          "name": "_id",
          "type": "uint256"
        },
        {
          "internalType": "address",
          "name": "_to",
          "type": "address"
        }
      ],
      "name": "transferCredit",
      "outputs": [],
      "stateMutability": "nonpayable",
      "type": "function"
    },
    {
      "inputs": [],
      "name": "getTransactionHistoryCount",
      "outputs": [
        {
          "internalType": "uint256",
          "name": "",
          "type": "uint256"
        }
      ],
      "stateMutability": "view",
      "type": "function"
    },
    {
      "inputs": [
        {
          "internalType": "uint256",
          "name": "_index",
          "type": "uint256"
        }
      ],
      "name": "getTransactionDetails",
      "outputs": [
        {
          "internalType": "uint256",
          "name": "",
          "type": "uint256"
        },
        {
          "internalType": "string",
          "name": "",
          "type": "string"
        },
        {
          "internalType": "address",
          "name": "",
          "type": "address"
        },
        {
          "internalType": "address",
          "name": "",
          "type": "address"
        },
        {
          "internalType": "uint256",
          "name": "",
          "type": "uint256"
        }
      ],
      "stateMutability": "view",
      "type": "function"
    }
  ],
  "bytecode": "0x608060405234801561001057600080fd5b50611601806100206000396000f3fe608060405234801561001057600080fd5b506004361061007d5760003560e01c80638dd2d97a1161005b5780638dd2d97a146101075780639ace38c214610125578063bb82d93614610159578063fc00b798146101755761007d565b8063036a1c22146100825780630df3a1e0146100b75780630fa683d3146100d3575b600080fd5b61009c60048036038101906100979190610e6d565b610193565b6040516100ae9695949392919061117d565b60405180910390f35b6100d160048036038101906100cc9190610e96565b610284565b005b6100ed60048036038101906100e89190610e6d565b610653565b6040516100fe9594939291906110e5565b60405180910390f35b61010f610879565b60405161011c91906110ca565b60405180910390f35b61013f600480360381019061013a9190610e6d565b610886565b6040516101509594939291906110e5565b60405180910390f35b610173600480360381019061016e9190610e06565b610994565b005b61017d610ccb565b60405161018a91906110ca565b60405180910390f35b60006020528060005260406000206000915090508060000154908060010180546101bc90611337565b80601f01602080910402602001604051908101604052809291908181526020018280546101e890611337565b80156102355780601f1061020a57610100808354040283529160200191610235565b820191906000526020600020905b81548152906001019060200180831161021857829003601f168201915b5050505050908060020154908060030160009054906101000a900473ffffffffffffffffffffffffffffffffffffffff16908060040154908060050160009054906101000a900460ff16905086565b60015482106102c8576040517f08c379a00000000000000000000000000000000000000000000000000000000081526004016102bf9061106a565b60405180910390fd5b600073ffffffffffffffffffffffffffffffffffffffff168173ffffffffffffffffffffffffffffffffffffffff161415610338576040517f08c379a000000000000000000000000000000000000000000000000000000000815260040161032f9061108a565b60405180910390fd5b600080600084815260200190815260200160002090503373ffffffffffffffffffffffffffffffffffffffff168160030160009054906101000a900473ffffffffffffffffffffffffffffffffffffffff1673ffffffffffffffffffffffffffffffffffffffff16146103e0576040517f08c379a00000000000000000000000000000000000000000000000000000000081526004016103d7906110aa565b60405180910390fd5b8060050160009054906101000a900460ff1615610432576040517f08c379a00000000000000000000000000000000000000000000000000000000081526004016104299061102a565b60405180910390fd5b818160030160006101000a81548173ffffffffffffffffffffffffffffffffffffffff021916908373ffffffffffffffffffffffffffffffffffffffff16021790555060026040518060a001604052808581526020016040518060400160405280600b81526020017f5472616e7366657272656400000000000000000000000000000000000000000081525081526020013373ffffffffffffffffffffffffffffffffffffffff1681526020018473ffffffffffffffffffffffffffffffffffffffff16815260200142815250908060018154018082558091505060019003906000526020600020906005020160009091909190915060008201518160000155602082015181600101908051906020019061054e929190610cd1565b5060408201518160020160006101000a81548173ffffffffffffffffffffffffffffffffffffffff021916908373ffffffffffffffffffffffffffffffffffffffff16021790555060608201518160030160006101000a81548173ffffffffffffffffffffffffffffffffffffffff021916908373ffffffffffffffffffffffffffffffffffffffff1602179055506080820151816004015550508173ffffffffffffffffffffffffffffffffffffffff163373ffffffffffffffffffffffffffffffffffffffff167f7498bf43d4148a03a165d093fcadc813f1a344a5f983812a2777c01f4dc2f0d68560405161064691906110ca565b60405180910390a3505050565b60006060600080600060028054905086106106a3576040517f08c379a000000000000000000000000000000000000000000000000000000000815260040161069a9061100a565b60405180910390fd5b6000600287815481106106df577f4e487b7100000000000000000000000000000000000000000000000000000000600052603260045260246000fd5b90600052602060002090600502016040518060a00160405290816000820154815260200160018201805461071290611337565b80601f016020809104026020016040519081016040528092919081815260200182805461073e90611337565b801561078b5780601f106107605761010080835404028352916020019161078b565b820191906000526020600020905b81548152906001019060200180831161076e57829003601f168201915b505050505081526020016002820160009054906101000a900473ffffffffffffffffffffffffffffffffffffffff1673ffffffffffffffffffffffffffffffffffffffff1673ffffffffffffffffffffffffffffffffffffffff1681526020016003820160009054906101000a900473ffffffffffffffffffffffffffffffffffffffff1673ffffffffffffffffffffffffffffffffffffffff1673ffffffffffffffffffffffffffffffffffffffff168152602001600482015481525050905080600001518160200151826040015183606001518460800151955095509550955095505091939590929450565b6000600280549050905090565b6002818154811061089657600080fd5b90600052602060002090600502016000915090508060000154908060010180546108bf90611337565b80601f01602080910402602001604051908101604052809291908181526020018280546108eb90611337565b80156109385780601f1061090d57610100808354040283529160200191610938565b820191906000526020600020905b81548152906001019060200180831161091b57829003601f168201915b5050505050908060020160009054906101000a900473ffffffffffffffffffffffffffffffffffffffff16908060030160009054906101000a900473ffffffffffffffffffffffffffffffffffffffff16908060040154905085565b600082116109d7576040517f08c379a00000000000000000000000000000000000000000000000000000000081526004016109ce9061104a565b60405180910390fd5b6040518060c0016040528060015481526020018481526020018381526020013373ffffffffffffffffffffffffffffffffffffffff1681526020018242610a1e9190611257565b8152602001600015158152506000806001548152602001908152602001600020600082015181600001556020820151816001019080519060200190610a64929190610cd1565b506040820151816002015560608201518160030160006101000a81548173ffffffffffffffffffffffffffffffffffffffff021916908373ffffffffffffffffffffffffffffffffffffffff1602179055506080820151816004015560a08201518160050160006101000a81548160ff02191690831515021790555090505060026040518060a0016040528060015481526020016040518060400160405280600681526020017f49737375656400000000000000000000000000000000000000000000000000008152508152602001600073ffffffffffffffffffffffffffffffffffffffff1681526020013373ffffffffffffffffffffffffffffffffffffffff168152602001428152509080600181540180825580915050600190039060005260206000209060050201600090919091909150600082015181600001556020820151816001019080519060200190610bbf929190610cd1565b5060408201518160020160006101000a81548173ffffffffffffffffffffffffffffffffffffffff021916908373ffffffffffffffffffffffffffffffffffffffff16021790555060608201518160030160006101000a81548173ffffffffffffffffffffffffffffffffffffffff021916908373ffffffffffffffffffffffffffffffffffffffff1602179055506080820151816004015550503373ffffffffffffffffffffffffffffffffffffffff167f8d43f7b657997330e62fa2b4c76560f9a652ad99a59702bc1c9858a077d673936001548585604051610ca69392919061113f565b60405180910390a260016000815480929190610cc19061139a565b9190505550505050565b60015481565b828054610cdd90611337565b90600052602060002090601f016020900481019282610cff5760008555610d46565b82601f10610d1857805160ff1916838001178555610d46565b82800160010185558215610d46579182015b82811115610d45578251825591602001919060010190610d2a565b5b509050610d539190610d57565b5090565b5b80821115610d70576000816000905550600101610d58565b5090565b6000610d87610d828461120a565b6111e5565b905082815260208101848484011115610d9f57600080fd5b610daa8482856112f5565b509392505050565b600081359050610dc18161159d565b92915050565b600082601f830112610dd857600080fd5b8135610de8848260208601610d74565b91505092915050565b600081359050610e00816115b4565b92915050565b600080600060608486031215610e1b57600080fd5b600084013567ffffffffffffffff811115610e3557600080fd5b610e4186828701610dc7565b9350506020610e5286828701610df1565b9250506040610e6386828701610df1565b9150509250925092565b600060208284031215610e7f57600080fd5b6000610e8d84828501610df1565b91505092915050565b60008060408385031215610ea957600080fd5b6000610eb785828601610df1565b9250506020610ec885828601610db2565b9150509250929050565b610edb816112ad565b82525050565b610eea816112bf565b82525050565b6000610efb8261123b565b610f058185611246565b9350610f15818560208601611304565b610f1e81611470565b840191505092915050565b6000610f36601f83611246565b9150610f4182611481565b602082019050919050565b6000610f59602083611246565b9150610f64826114aa565b602082019050919050565b6000610f7c602083611246565b9150610f87826114d3565b602082019050919050565b6000610f9f601883611246565b9150610faa826114fc565b602082019050919050565b6000610fc2601983611246565b9150610fcd82611525565b602082019050919050565b6000610fe5602683611246565b9150610ff08261154e565b604082019050919050565b611004816112eb565b82525050565b6000602082019050818103600083015261102381610f29565b9050919050565b6000602082019050818103600083015261104381610f4c565b9050919050565b6000602082019050818103600083015261106381610f6f565b9050919050565b6000602082019050818103600083015261108381610f92565b9050919050565b600060208201905081810360008301526110a381610fb5565b9050919050565b600060208201905081810360008301526110c381610fd8565b9050919050565b60006020820190506110df6000830184610ffb565b92915050565b600060a0820190506110fa6000830188610ffb565b818103602083015261110c8187610ef0565b905061111b6040830186610ed2565b6111286060830185610ed2565b6111356080830184610ffb565b9695505050505050565b60006060820190506111546000830186610ffb565b81810360208301526111668185610ef0565b90506111756040830184610ffb565b949350505050565b600060c0820190506111926000830189610ffb565b81810360208301526111a48188610ef0565b90506111b36040830187610ffb565b6111c06060830186610ed2565b6111cd6080830185610ffb565b6111da60a0830184610ee1565b979650505050505050565b60006111ef611200565b90506111fb8282611369565b919050565b6000604051905090565b600067ffffffffffffffff82111561122557611224611441565b5b61122e82611470565b9050602081019050919050565b600081519050919050565b600082825260208201905092915050565b6000611262826112eb565b915061126d836112eb565b9250827fffffffffffffffffffffffffffffffffffffffffffffffffffffffffffffffff038211156112a2576112a16113e3565b5b828201905092915050565b60006112b8826112cb565b9050919050565b60008115159050919050565b600073ffffffffffffffffffffffffffffffffffffffff82169050919050565b6000819050919050565b82818337600083830152505050565b60005b83811015611322578082015181840152602081019050611307565b83811115611331576000848401525b50505050565b6000600282049050600182168061134f57607f821691505b6020821081141561136357611362611412565b5b50919050565b61137282611470565b810181811067ffffffffffffffff8211171561139157611390611441565b5b80604052505050565b60006113a5826112eb565b91507fffffffffffffffffffffffffffffffffffffffffffffffffffffffffffffffff8214156113d8576113d76113e3565b5b600182019050919050565b7f4e487b7100000000000000000000000000000000000000000000000000000000600052601160045260246000fd5b7f4e487b7100000000000000000000000000000000000000000000000000000000600052602260045260246000fd5b7f4e487b7100000000000000000000000000000000000000000000000000000000600052604160045260246000fd5b6000601f19601f8301169050919050565b7f5472616e73616374696f6e20696e646578206f7574206f6620626f756e647300600082015250565b7f43616e6e6f74207472616e736665722061207265766f6b656420637265646974600082015250565b7f416d6f756e74206d7573742062652067726561746572207468616e207a65726f600082015250565b7f43726564697420494420646f6573206e6f742065786973740000000000000000600082015250565b7f496e76616c696420726563697069656e74206164647265737300000000000000600082015250565b7f4f6e6c7920746865206f776e65722063616e207472616e73666572207468652060008201527f6372656469740000000000000000000000000000000000000000000000000000602082015250565b6115a6816112ad565b81146115b157600080fd5b50565b6115bd816112eb565b81146115c857600080fd5b5056fea264697066735822122064b8f7448e98b3f7cce499a66d143ddfd69169eb12b6bc2ad88205242a05389764736f6c63430008010033",
  "immutableReferences": {},
  "source": "// SPDX-License-Identifier: UNLICENSED\r\npragma solidity ^0.8.0;\r\n\r\ncontract CarbonCreditExchange {\r\n    struct Credit {\r\n        uint id;\r\n        string project;\r\n        uint amount;\r\n        address owner;\r\n        uint expirationDate;\r\n        bool isRevoked;\r\n    }\r\n\r\n    struct Transaction {\r\n        uint creditId;\r\n        string action;\r\n        address from;\r\n        address to;\r\n        uint timestamp;\r\n    }\r\n\r\n    mapping(uint => Credit) public credits;\r\n    uint public nextCreditId;\r\n\r\n    Transaction[] public transactions;\r\n\r\n    event CreditIssued(uint id, string project, uint amount, address indexed owner);\r\n    event CreditTransferred(uint id, address indexed from, address indexed to);\r\n    event CreditApproved(uint id);\r\n    event CreditRevoked(uint id);\r\n\r\n    function issueCredit(string memory _project, uint _amount, uint _expirationPeriod) public {\r\n        require(_amount > 0, \"Amount must be greater than zero\");\r\n\r\n        credits[nextCreditId] = Credit({\r\n            id: nextCreditId,\r\n            project: _project,\r\n            amount: _amount,\r\n            owner: msg.sender,\r\n            expirationDate: block.timestamp + _expirationPeriod,\r\n            isRevoked: false\r\n        });\r\n\r\n        transactions.push(Transaction({\r\n            creditId: nextCreditId,\r\n            action: \"Issued\",\r\n            from: address(0),\r\n            to: msg.sender,\r\n            timestamp: block.timestamp\r\n        }));\r\n\r\n        emit CreditIssued(nextCreditId, _project, _amount, msg.sender);\r\n        nextCreditId++;\r\n    }\r\n\r\n    function transferCredit(uint _id, address _to) public {\r\n        require(_id < nextCreditId, \"Credit ID does not exist\");\r\n        require(_to != address(0), \"Invalid recipient address\");\r\n\r\n        Credit storage credit = credits[_id];\r\n        require(credit.owner == msg.sender, \"Only the owner can transfer the credit\");\r\n        require(!credit.isRevoked, \"Cannot transfer a revoked credit\");\r\n\r\n        credit.owner = _to;\r\n\r\n        transactions.push(Transaction({\r\n            creditId: _id,\r\n            action: \"Transferred\",\r\n            from: msg.sender,\r\n            to: _to,\r\n            timestamp: block.timestamp\r\n        }));\r\n\r\n        emit CreditTransferred(_id, msg.sender, _to);\r\n    }\r\n\r\n    function getTransactionHistoryCount() public view returns (uint) {\r\n        return transactions.length;\r\n    }\r\n\r\n    function getTransactionDetails(uint _index) public view returns (uint, string memory, address, address, uint) {\r\n        require(_index < transactions.length, \"Transaction index out of bounds\");\r\n        Transaction memory transaction = transactions[_index];\r\n        return (transaction.creditId, transaction.action, transaction.from, transaction.to, transaction.timestamp);\r\n    }\r\n}",
  "sourcePath": "C:\\Users\\ndvc0\\OneDrive\\Desktop\\Blockchain\\carbon-credit-exchange\\contracts\\CarbonCreditExchange.sol",
  "compiler": {
    "name": "solc",
    "version": "0.8.1+commit.df193b15.Emscripten.clang"
  },
  "schemaVersion": "3.4.16",
  "updatedAt": "2024-11-18T21:01:26.601Z",
  "devdoc": {
    "kind": "dev",
    "methods": {},
    "version": 1
  },
  "userdoc": {
    "kind": "user",
    "methods": {},
    "version": 1
  }
}