{
  "contractName": "CarbonCreditExchange",
  "abi": [
    {
      "inputs": [],
      "stateMutability": "nonpayable",
      "type": "constructor"
    },
    {
      "anonymous": false,
      "inputs": [
        {
          "indexed": false,
          "internalType": "uint256",
          "name": "id",
          "type": "uint256"
        },
        {
          "indexed": false,
          "internalType": "string",
          "name": "project",
          "type": "string"
        },
        {
          "indexed": false,
          "internalType": "uint256",
          "name": "amount",
          "type": "uint256"
        },
        {
          "indexed": true,
          "internalType": "address",
          "name": "owner",
          "type": "address"
        }
      ],
      "name": "CreditIssued",
      "type": "event"
    },
    {
      "anonymous": false,
      "inputs": [
        {
          "indexed": false,
          "internalType": "uint256",
          "name": "id",
          "type": "uint256"
        },
        {
          "indexed": true,
          "internalType": "address",
          "name": "from",
          "type": "address"
        },
        {
          "indexed": true,
          "internalType": "address",
          "name": "to",
          "type": "address"
        }
      ],
      "name": "CreditTransferred",
      "type": "event"
    },
    {
      "inputs": [
        {
          "internalType": "uint256",
          "name": "",
          "type": "uint256"
        }
      ],
      "name": "credits",
      "outputs": [
        {
          "internalType": "uint256",
          "name": "id",
          "type": "uint256"
        },
        {
          "internalType": "string",
          "name": "project",
          "type": "string"
        },
        {
          "internalType": "uint256",
          "name": "amount",
          "type": "uint256"
        },
        {
          "internalType": "address",
          "name": "owner",
          "type": "address"
        },
        {
          "internalType": "uint256",
          "name": "expirationDate",
          "type": "uint256"
        },
        {
          "internalType": "bool",
          "name": "isRevoked",
          "type": "bool"
        }
      ],
      "stateMutability": "view",
      "type": "function",
      "constant": true
    },
    {
      "inputs": [],
      "name": "marketplaceContract",
      "outputs": [
        {
          "internalType": "address",
          "name": "",
          "type": "address"
        }
      ],
      "stateMutability": "view",
      "type": "function",
      "constant": true
    },
    {
      "inputs": [],
      "name": "nextCreditId",
      "outputs": [
        {
          "internalType": "uint256",
          "name": "",
          "type": "uint256"
        }
      ],
      "stateMutability": "view",
      "type": "function",
      "constant": true
    },
    {
      "inputs": [],
      "name": "owner",
      "outputs": [
        {
          "internalType": "address",
          "name": "",
          "type": "address"
        }
      ],
      "stateMutability": "view",
      "type": "function",
      "constant": true
    },
    {
      "inputs": [
        {
          "internalType": "address",
          "name": "_marketplace",
          "type": "address"
        }
      ],
      "name": "setMarketplaceContract",
      "outputs": [],
      "stateMutability": "nonpayable",
      "type": "function"
    },
    {
      "inputs": [
        {
          "internalType": "string",
          "name": "_project",
          "type": "string"
        },
        {
          "internalType": "uint256",
          "name": "_amount",
          "type": "uint256"
        },
        {
          "internalType": "uint256",
          "name": "_expirationPeriod",
          "type": "uint256"
        }
      ],
      "name": "issueCredit",
      "outputs": [],
      "stateMutability": "nonpayable",
      "type": "function"
    },
    {
      "inputs": [
        {
          "internalType": "uint256",
          "name": "_id",
          "type": "uint256"
        },
        {
          "internalType": "address",
          "name": "_to",
          "type": "address"
        }
      ],
      "name": "transferCredit",
      "outputs": [],
      "stateMutability": "nonpayable",
      "type": "function"
    },
    {
      "inputs": [
        {
          "internalType": "uint256",
          "name": "_id",
          "type": "uint256"
        },
        {
          "internalType": "address",
          "name": "_to",
          "type": "address"
        }
      ],
      "name": "marketplaceTransfer",
      "outputs": [],
      "stateMutability": "nonpayable",
      "type": "function"
    },
    {
      "inputs": [
        {
          "internalType": "uint256",
          "name": "_id",
          "type": "uint256"
        }
      ],
      "name": "getCreditDetails",
      "outputs": [
        {
          "internalType": "uint256",
          "name": "",
          "type": "uint256"
        },
        {
          "internalType": "string",
          "name": "",
          "type": "string"
        },
        {
          "internalType": "uint256",
          "name": "",
          "type": "uint256"
        },
        {
          "internalType": "address",
          "name": "",
          "type": "address"
        },
        {
          "internalType": "uint256",
          "name": "",
          "type": "uint256"
        },
        {
          "internalType": "bool",
          "name": "",
          "type": "bool"
        }
      ],
      "stateMutability": "view",
      "type": "function",
      "constant": true
    }
  ],
  "bytecode": "0x608060405234801561001057600080fd5b5033600360006101000a81548173ffffffffffffffffffffffffffffffffffffffff021916908373ffffffffffffffffffffffffffffffffffffffff160217905550611617806100616000396000f3fe608060405234801561001057600080fd5b50600436106100935760003560e01c80638da5cb5b116100665780638da5cb5b14610121578063bb82d9361461013f578063d1bb5cf11461015b578063f85aafbd14610179578063fc00b798146101ae57610093565b8063036a1c22146100985780630df3a1e0146100cd5780631102610e146100e95780637339342214610105575b600080fd5b6100b260048036038101906100ad9190610e0a565b6101cc565b6040516100c49695949392919061111e565b60405180910390f35b6100e760048036038101906100e29190610e33565b6102bd565b005b61010360048036038101906100fe9190610d7a565b610518565b005b61011f600480360381019061011a9190610e33565b6105ec565b005b61012961086f565b6040516101369190610fca565b60405180910390f35b61015960048036038101906101549190610da3565b610895565b005b610163610a55565b6040516101709190610fca565b60405180910390f35b610193600480360381019061018e9190610e0a565b610a7b565b6040516101a59695949392919061111e565b60405180910390f35b6101b6610c3f565b6040516101c391906110c5565b60405180910390f35b60006020528060005260406000206000915090508060000154908060010180546101f5906112d8565b80601f0160208091040260200160405190810160405280929190818152602001828054610221906112d8565b801561026e5780601f106102435761010080835404028352916020019161026e565b820191906000526020600020905b81548152906001019060200180831161025157829003601f168201915b5050505050908060020154908060030160009054906101000a900473ffffffffffffffffffffffffffffffffffffffff16908060040154908060050160009054906101000a900460ff16905086565b6001548210610301576040517f08c379a00000000000000000000000000000000000000000000000000000000081526004016102f890611025565b60405180910390fd5b600073ffffffffffffffffffffffffffffffffffffffff168173ffffffffffffffffffffffffffffffffffffffff161415610371576040517f08c379a000000000000000000000000000000000000000000000000000000000815260040161036890611065565b60405180910390fd5b600080600084815260200190815260200160002090503373ffffffffffffffffffffffffffffffffffffffff168160030160009054906101000a900473ffffffffffffffffffffffffffffffffffffffff1673ffffffffffffffffffffffffffffffffffffffff1614610419576040517f08c379a000000000000000000000000000000000000000000000000000000000815260040161041090611085565b60405180910390fd5b8060050160009054906101000a900460ff161561046b576040517f08c379a000000000000000000000000000000000000000000000000000000000815260040161046290610fe5565b60405180910390fd5b818160030160006101000a81548173ffffffffffffffffffffffffffffffffffffffff021916908373ffffffffffffffffffffffffffffffffffffffff1602179055508173ffffffffffffffffffffffffffffffffffffffff163373ffffffffffffffffffffffffffffffffffffffff167f7498bf43d4148a03a165d093fcadc813f1a344a5f983812a2777c01f4dc2f0d68560405161050b91906110c5565b60405180910390a3505050565b600360009054906101000a900473ffffffffffffffffffffffffffffffffffffffff1673ffffffffffffffffffffffffffffffffffffffff163373ffffffffffffffffffffffffffffffffffffffff16146105a8576040517f08c379a000000000000000000000000000000000000000000000000000000000815260040161059f90611045565b60405180910390fd5b80600260006101000a81548173ffffffffffffffffffffffffffffffffffffffff021916908373ffffffffffffffffffffffffffffffffffffffff16021790555050565b600260009054906101000a900473ffffffffffffffffffffffffffffffffffffffff1673ffffffffffffffffffffffffffffffffffffffff163373ffffffffffffffffffffffffffffffffffffffff161461067c576040517f08c379a0000000000000000000000000000000000000000000000000000000008152600401610673906110a5565b60405180910390fd5b60015482106106c0576040517f08c379a00000000000000000000000000000000000000000000000000000000081526004016106b790611025565b60405180910390fd5b600073ffffffffffffffffffffffffffffffffffffffff168173ffffffffffffffffffffffffffffffffffffffff161415610730576040517f08c379a000000000000000000000000000000000000000000000000000000000815260040161072790611065565b60405180910390fd5b600080600084815260200190815260200160002090508060050160009054906101000a900460ff1615610798576040517f08c379a000000000000000000000000000000000000000000000000000000000815260040161078f90610fe5565b60405180910390fd5b60008160030160009054906101000a900473ffffffffffffffffffffffffffffffffffffffff169050828260030160006101000a81548173ffffffffffffffffffffffffffffffffffffffff021916908373ffffffffffffffffffffffffffffffffffffffff1602179055508273ffffffffffffffffffffffffffffffffffffffff168173ffffffffffffffffffffffffffffffffffffffff167f7498bf43d4148a03a165d093fcadc813f1a344a5f983812a2777c01f4dc2f0d68660405161086191906110c5565b60405180910390a350505050565b600360009054906101000a900473ffffffffffffffffffffffffffffffffffffffff1681565b600082116108d8576040517f08c379a00000000000000000000000000000000000000000000000000000000081526004016108cf90611005565b60405180910390fd5b6040518060c0016040528060015481526020018481526020018381526020013373ffffffffffffffffffffffffffffffffffffffff168152602001824261091f91906111f8565b8152602001600015158152506000806001548152602001908152602001600020600082015181600001556020820151816001019080519060200190610965929190610c45565b506040820151816002015560608201518160030160006101000a81548173ffffffffffffffffffffffffffffffffffffffff021916908373ffffffffffffffffffffffffffffffffffffffff1602179055506080820151816004015560a08201518160050160006101000a81548160ff0219169083151502179055509050503373ffffffffffffffffffffffffffffffffffffffff167f8d43f7b657997330e62fa2b4c76560f9a652ad99a59702bc1c9858a077d673936001548585604051610a30939291906110e0565b60405180910390a260016000815480929190610a4b9061133b565b9190505550505050565b600260009054906101000a900473ffffffffffffffffffffffffffffffffffffffff1681565b600060606000806000806001548710610ac9576040517f08c379a0000000000000000000000000000000000000000000000000000000008152600401610ac090611025565b60405180910390fd5b60008060008981526020019081526020016000206040518060c001604052908160008201548152602001600182018054610b02906112d8565b80601f0160208091040260200160405190810160405280929190818152602001828054610b2e906112d8565b8015610b7b5780601f10610b5057610100808354040283529160200191610b7b565b820191906000526020600020905b815481529060010190602001808311610b5e57829003601f168201915b50505050508152602001600282015481526020016003820160009054906101000a900473ffffffffffffffffffffffffffffffffffffffff1673ffffffffffffffffffffffffffffffffffffffff1673ffffffffffffffffffffffffffffffffffffffff168152602001600482015481526020016005820160009054906101000a900460ff1615151515815250509050806000015181602001518260400151836060015184608001518560a001519650965096509650965096505091939550919395565b60015481565b828054610c51906112d8565b90600052602060002090601f016020900481019282610c735760008555610cba565b82601f10610c8c57805160ff1916838001178555610cba565b82800160010185558215610cba579182015b82811115610cb9578251825591602001919060010190610c9e565b5b509050610cc79190610ccb565b5090565b5b80821115610ce4576000816000905550600101610ccc565b5090565b6000610cfb610cf6846111ab565b611186565b905082815260208101848484011115610d1357600080fd5b610d1e848285611296565b509392505050565b600081359050610d35816115b3565b92915050565b600082601f830112610d4c57600080fd5b8135610d5c848260208601610ce8565b91505092915050565b600081359050610d74816115ca565b92915050565b600060208284031215610d8c57600080fd5b6000610d9a84828501610d26565b91505092915050565b600080600060608486031215610db857600080fd5b600084013567ffffffffffffffff811115610dd257600080fd5b610dde86828701610d3b565b9350506020610def86828701610d65565b9250506040610e0086828701610d65565b9150509250925092565b600060208284031215610e1c57600080fd5b6000610e2a84828501610d65565b91505092915050565b60008060408385031215610e4657600080fd5b6000610e5485828601610d65565b9250506020610e6585828601610d26565b9150509250929050565b610e788161124e565b82525050565b610e8781611260565b82525050565b6000610e98826111dc565b610ea281856111e7565b9350610eb28185602086016112a5565b610ebb81611411565b840191505092915050565b6000610ed36020836111e7565b9150610ede82611422565b602082019050919050565b6000610ef66020836111e7565b9150610f018261144b565b602082019050919050565b6000610f196018836111e7565b9150610f2482611474565b602082019050919050565b6000610f3c602e836111e7565b9150610f478261149d565b604082019050919050565b6000610f5f6019836111e7565b9150610f6a826114ec565b602082019050919050565b6000610f826026836111e7565b9150610f8d82611515565b604082019050919050565b6000610fa56034836111e7565b9150610fb082611564565b604082019050919050565b610fc48161128c565b82525050565b6000602082019050610fdf6000830184610e6f565b92915050565b60006020820190508181036000830152610ffe81610ec6565b9050919050565b6000602082019050818103600083015261101e81610ee9565b9050919050565b6000602082019050818103600083015261103e81610f0c565b9050919050565b6000602082019050818103600083015261105e81610f2f565b9050919050565b6000602082019050818103600083015261107e81610f52565b9050919050565b6000602082019050818103600083015261109e81610f75565b9050919050565b600060208201905081810360008301526110be81610f98565b9050919050565b60006020820190506110da6000830184610fbb565b92915050565b60006060820190506110f56000830186610fbb565b81810360208301526111078185610e8d565b90506111166040830184610fbb565b949350505050565b600060c0820190506111336000830189610fbb565b81810360208301526111458188610e8d565b90506111546040830187610fbb565b6111616060830186610e6f565b61116e6080830185610fbb565b61117b60a0830184610e7e565b979650505050505050565b60006111906111a1565b905061119c828261130a565b919050565b6000604051905090565b600067ffffffffffffffff8211156111c6576111c56113e2565b5b6111cf82611411565b9050602081019050919050565b600081519050919050565b600082825260208201905092915050565b60006112038261128c565b915061120e8361128c565b9250827fffffffffffffffffffffffffffffffffffffffffffffffffffffffffffffffff0382111561124357611242611384565b5b828201905092915050565b60006112598261126c565b9050919050565b60008115159050919050565b600073ffffffffffffffffffffffffffffffffffffffff82169050919050565b6000819050919050565b82818337600083830152505050565b60005b838110156112c35780820151818401526020810190506112a8565b838111156112d2576000848401525b50505050565b600060028204905060018216806112f057607f821691505b60208210811415611304576113036113b3565b5b50919050565b61131382611411565b810181811067ffffffffffffffff82111715611332576113316113e2565b5b80604052505050565b60006113468261128c565b91507fffffffffffffffffffffffffffffffffffffffffffffffffffffffffffffffff82141561137957611378611384565b5b600182019050919050565b7f4e487b7100000000000000000000000000000000000000000000000000000000600052601160045260246000fd5b7f4e487b7100000000000000000000000000000000000000000000000000000000600052602260045260246000fd5b7f4e487b7100000000000000000000000000000000000000000000000000000000600052604160045260246000fd5b6000601f19601f8301169050919050565b7f43616e6e6f74207472616e736665722061207265766f6b656420637265646974600082015250565b7f416d6f756e74206d7573742062652067726561746572207468616e207a65726f600082015250565b7f43726564697420494420646f6573206e6f742065786973740000000000000000600082015250565b7f4f6e6c792074686520636f6e7472616374206f776e65722063616e2063616c6c60008201527f20746869732066756e6374696f6e000000000000000000000000000000000000602082015250565b7f496e76616c696420726563697069656e74206164647265737300000000000000600082015250565b7f4f6e6c7920746865206f776e65722063616e207472616e73666572207468652060008201527f6372656469740000000000000000000000000000000000000000000000000000602082015250565b7f4f6e6c7920746865206d61726b6574706c61636520636f6e747261637420636160008201527f6e2063616c6c20746869732066756e6374696f6e000000000000000000000000602082015250565b6115bc8161124e565b81146115c757600080fd5b50565b6115d38161128c565b81146115de57600080fd5b5056fea26469706673582212201fa0f3d9b63cba5f38ea34581b230c3a02500a7b4ffb665060ef067ad3661b5964736f6c63430008010033",
  "immutableReferences": {},
  "source": "// SPDX-License-Identifier: UNLICENSED\r\npragma solidity ^0.8.0;\r\n\r\ncontract CarbonCreditExchange {\r\n    struct Credit {\r\n        uint id;\r\n        string project;\r\n        uint amount;\r\n        address owner;\r\n        uint expirationDate;\r\n        bool isRevoked;\r\n    }\r\n\r\n    mapping(uint => Credit) public credits;\r\n    uint public nextCreditId;\r\n    address public marketplaceContract;\r\n    address public owner;\r\n\r\n    event CreditIssued(uint id, string project, uint amount, address indexed owner);\r\n    event CreditTransferred(uint id, address indexed from, address indexed to);\r\n\r\n    modifier onlyOwner() {\r\n        require(msg.sender == owner, \"Only the contract owner can call this function\");\r\n        _;\r\n    }\r\n\r\n    constructor() {\r\n        owner = msg.sender;\r\n    }\r\n\r\n    function setMarketplaceContract(address _marketplace) public onlyOwner {\r\n        marketplaceContract = _marketplace;\r\n    }\r\n\r\n    function issueCredit(string memory _project, uint _amount, uint _expirationPeriod) public {\r\n        require(_amount > 0, \"Amount must be greater than zero\");\r\n\r\n        credits[nextCreditId] = Credit({\r\n            id: nextCreditId,\r\n            project: _project,\r\n            amount: _amount,\r\n            owner: msg.sender,\r\n            expirationDate: block.timestamp + _expirationPeriod,\r\n            isRevoked: false\r\n        });\r\n\r\n        emit CreditIssued(nextCreditId, _project, _amount, msg.sender);\r\n        nextCreditId++;\r\n    }\r\n\r\n    function transferCredit(uint _id, address _to) public {\r\n        require(_id < nextCreditId, \"Credit ID does not exist\");\r\n        require(_to != address(0), \"Invalid recipient address\");\r\n\r\n        Credit storage credit = credits[_id];\r\n        require(credit.owner == msg.sender, \"Only the owner can transfer the credit\");\r\n        require(!credit.isRevoked, \"Cannot transfer a revoked credit\");\r\n\r\n        credit.owner = _to;\r\n\r\n        emit CreditTransferred(_id, msg.sender, _to);\r\n    }\r\n\r\n    function marketplaceTransfer(uint _id, address _to) public {\r\n        require(msg.sender == marketplaceContract, \"Only the marketplace contract can call this function\");\r\n        require(_id < nextCreditId, \"Credit ID does not exist\");\r\n        require(_to != address(0), \"Invalid recipient address\");\r\n\r\n        Credit storage credit = credits[_id];\r\n        require(!credit.isRevoked, \"Cannot transfer a revoked credit\");\r\n\r\n        address previousOwner = credit.owner;\r\n        credit.owner = _to;\r\n\r\n        emit CreditTransferred(_id, previousOwner, _to);\r\n    }\r\n\r\n    function getCreditDetails(uint _id) public view returns (uint, string memory, uint, address, uint, bool) {\r\n        require(_id < nextCreditId, \"Credit ID does not exist\");\r\n        Credit memory credit = credits[_id];\r\n        return (credit.id, credit.project, credit.amount, credit.owner, credit.expirationDate, credit.isRevoked);\r\n    }\r\n}\r\n",
  "sourcePath": "C:\\Users\\ndvc0\\OneDrive\\Desktop\\Blockchain\\carbon-credit-exchange\\contracts\\CarbonCreditExchange.sol",
  "compiler": {
    "name": "solc",
    "version": "0.8.1+commit.df193b15.Emscripten.clang"
  },
  "schemaVersion": "3.4.16",
  "updatedAt": "2024-11-18T22:18:54.330Z",
  "networkType": "ethereum",
  "devdoc": {
    "kind": "dev",
    "methods": {},
    "version": 1
  },
  "userdoc": {
    "kind": "user",
    "methods": {},
    "version": 1
  }
}