{
  "contractName": "CarbonNftMarketplace",
  "abi": [
    {
      "inputs": [
        {
          "internalType": "address",
          "name": "_carbonCreditExchange",
          "type": "address"
        }
      ],
      "stateMutability": "nonpayable",
      "type": "constructor"
    },
    {
      "anonymous": false,
      "inputs": [
        {
          "indexed": true,
          "internalType": "address",
          "name": "owner",
          "type": "address"
        },
        {
          "indexed": true,
          "internalType": "address",
          "name": "approved",
          "type": "address"
        },
        {
          "indexed": true,
          "internalType": "uint256",
          "name": "tokenId",
          "type": "uint256"
        }
      ],
      "name": "Approval",
      "type": "event"
    },
    {
      "anonymous": false,
      "inputs": [
        {
          "indexed": true,
          "internalType": "address",
          "name": "owner",
          "type": "address"
        },
        {
          "indexed": true,
          "internalType": "address",
          "name": "operator",
          "type": "address"
        },
        {
          "indexed": false,
          "internalType": "bool",
          "name": "approved",
          "type": "bool"
        }
      ],
      "name": "ApprovalForAll",
      "type": "event"
    },
    {
      "anonymous": false,
      "inputs": [
        {
          "indexed": false,
          "internalType": "uint256",
          "name": "_fromTokenId",
          "type": "uint256"
        },
        {
          "indexed": false,
          "internalType": "uint256",
          "name": "_toTokenId",
          "type": "uint256"
        }
      ],
      "name": "BatchMetadataUpdate",
      "type": "event"
    },
    {
      "anonymous": false,
      "inputs": [
        {
          "indexed": false,
          "internalType": "uint256",
          "name": "_tokenId",
          "type": "uint256"
        }
      ],
      "name": "MetadataUpdate",
      "type": "event"
    },
    {
      "anonymous": false,
      "inputs": [
        {
          "indexed": false,
          "internalType": "uint256",
          "name": "tokenId",
          "type": "uint256"
        },
        {
          "indexed": false,
          "internalType": "uint256",
          "name": "creditId",
          "type": "uint256"
        },
        {
          "indexed": false,
          "internalType": "uint256",
          "name": "price",
          "type": "uint256"
        },
        {
          "indexed": true,
          "internalType": "address",
          "name": "seller",
          "type": "address"
        }
      ],
      "name": "NFTListed",
      "type": "event"
    },
    {
      "anonymous": false,
      "inputs": [
        {
          "indexed": false,
          "internalType": "uint256",
          "name": "tokenId",
          "type": "uint256"
        },
        {
          "indexed": false,
          "internalType": "uint256",
          "name": "creditId",
          "type": "uint256"
        },
        {
          "indexed": false,
          "internalType": "uint256",
          "name": "price",
          "type": "uint256"
        },
        {
          "indexed": true,
          "internalType": "address",
          "name": "buyer",
          "type": "address"
        }
      ],
      "name": "NFTSold",
      "type": "event"
    },
    {
      "anonymous": false,
      "inputs": [
        {
          "indexed": true,
          "internalType": "address",
          "name": "previousOwner",
          "type": "address"
        },
        {
          "indexed": true,
          "internalType": "address",
          "name": "newOwner",
          "type": "address"
        }
      ],
      "name": "OwnershipTransferred",
      "type": "event"
    },
    {
      "anonymous": false,
      "inputs": [
        {
          "indexed": true,
          "internalType": "address",
          "name": "from",
          "type": "address"
        },
        {
          "indexed": true,
          "internalType": "address",
          "name": "to",
          "type": "address"
        },
        {
          "indexed": true,
          "internalType": "uint256",
          "name": "tokenId",
          "type": "uint256"
        }
      ],
      "name": "Transfer",
      "type": "event"
    },
    {
      "inputs": [
        {
          "internalType": "address",
          "name": "to",
          "type": "address"
        },
        {
          "internalType": "uint256",
          "name": "tokenId",
          "type": "uint256"
        }
      ],
      "name": "approve",
      "outputs": [],
      "stateMutability": "nonpayable",
      "type": "function"
    },
    {
      "inputs": [
        {
          "internalType": "address",
          "name": "owner",
          "type": "address"
        }
      ],
      "name": "balanceOf",
      "outputs": [
        {
          "internalType": "uint256",
          "name": "",
          "type": "uint256"
        }
      ],
      "stateMutability": "view",
      "type": "function",
      "constant": true
    },
    {
      "inputs": [],
      "name": "carbonCreditExchange",
      "outputs": [
        {
          "internalType": "contract ICarbonCreditExchange",
          "name": "",
          "type": "address"
        }
      ],
      "stateMutability": "view",
      "type": "function",
      "constant": true
    },
    {
      "inputs": [
        {
          "internalType": "uint256",
          "name": "tokenId",
          "type": "uint256"
        }
      ],
      "name": "getApproved",
      "outputs": [
        {
          "internalType": "address",
          "name": "",
          "type": "address"
        }
      ],
      "stateMutability": "view",
      "type": "function",
      "constant": true
    },
    {
      "inputs": [
        {
          "internalType": "address",
          "name": "owner",
          "type": "address"
        },
        {
          "internalType": "address",
          "name": "operator",
          "type": "address"
        }
      ],
      "name": "isApprovedForAll",
      "outputs": [
        {
          "internalType": "bool",
          "name": "",
          "type": "bool"
        }
      ],
      "stateMutability": "view",
      "type": "function",
      "constant": true
    },
    {
      "inputs": [],
      "name": "name",
      "outputs": [
        {
          "internalType": "string",
          "name": "",
          "type": "string"
        }
      ],
      "stateMutability": "view",
      "type": "function",
      "constant": true
    },
    {
      "inputs": [],
      "name": "nextTokenId",
      "outputs": [
        {
          "internalType": "uint256",
          "name": "",
          "type": "uint256"
        }
      ],
      "stateMutability": "view",
      "type": "function",
      "constant": true
    },
    {
      "inputs": [
        {
          "internalType": "uint256",
          "name": "",
          "type": "uint256"
        }
      ],
      "name": "nfts",
      "outputs": [
        {
          "internalType": "uint256",
          "name": "tokenId",
          "type": "uint256"
        },
        {
          "internalType": "uint256",
          "name": "creditId",
          "type": "uint256"
        },
        {
          "internalType": "uint256",
          "name": "price",
          "type": "uint256"
        },
        {
          "internalType": "address",
          "name": "seller",
          "type": "address"
        },
        {
          "internalType": "bool",
          "name": "isAvailable",
          "type": "bool"
        }
      ],
      "stateMutability": "view",
      "type": "function",
      "constant": true
    },
    {
      "inputs": [],
      "name": "owner",
      "outputs": [
        {
          "internalType": "address",
          "name": "",
          "type": "address"
        }
      ],
      "stateMutability": "view",
      "type": "function",
      "constant": true
    },
    {
      "inputs": [
        {
          "internalType": "uint256",
          "name": "tokenId",
          "type": "uint256"
        }
      ],
      "name": "ownerOf",
      "outputs": [
        {
          "internalType": "address",
          "name": "",
          "type": "address"
        }
      ],
      "stateMutability": "view",
      "type": "function",
      "constant": true
    },
    {
      "inputs": [],
      "name": "renounceOwnership",
      "outputs": [],
      "stateMutability": "nonpayable",
      "type": "function"
    },
    {
      "inputs": [
        {
          "internalType": "address",
          "name": "from",
          "type": "address"
        },
        {
          "internalType": "address",
          "name": "to",
          "type": "address"
        },
        {
          "internalType": "uint256",
          "name": "tokenId",
          "type": "uint256"
        }
      ],
      "name": "safeTransferFrom",
      "outputs": [],
      "stateMutability": "nonpayable",
      "type": "function"
    },
    {
      "inputs": [
        {
          "internalType": "address",
          "name": "from",
          "type": "address"
        },
        {
          "internalType": "address",
          "name": "to",
          "type": "address"
        },
        {
          "internalType": "uint256",
          "name": "tokenId",
          "type": "uint256"
        },
        {
          "internalType": "bytes",
          "name": "data",
          "type": "bytes"
        }
      ],
      "name": "safeTransferFrom",
      "outputs": [],
      "stateMutability": "nonpayable",
      "type": "function"
    },
    {
      "inputs": [
        {
          "internalType": "address",
          "name": "operator",
          "type": "address"
        },
        {
          "internalType": "bool",
          "name": "approved",
          "type": "bool"
        }
      ],
      "name": "setApprovalForAll",
      "outputs": [],
      "stateMutability": "nonpayable",
      "type": "function"
    },
    {
      "inputs": [
        {
          "internalType": "bytes4",
          "name": "interfaceId",
          "type": "bytes4"
        }
      ],
      "name": "supportsInterface",
      "outputs": [
        {
          "internalType": "bool",
          "name": "",
          "type": "bool"
        }
      ],
      "stateMutability": "view",
      "type": "function",
      "constant": true
    },
    {
      "inputs": [],
      "name": "symbol",
      "outputs": [
        {
          "internalType": "string",
          "name": "",
          "type": "string"
        }
      ],
      "stateMutability": "view",
      "type": "function",
      "constant": true
    },
    {
      "inputs": [
        {
          "internalType": "uint256",
          "name": "tokenId",
          "type": "uint256"
        }
      ],
      "name": "tokenURI",
      "outputs": [
        {
          "internalType": "string",
          "name": "",
          "type": "string"
        }
      ],
      "stateMutability": "view",
      "type": "function",
      "constant": true
    },
    {
      "inputs": [
        {
          "internalType": "address",
          "name": "from",
          "type": "address"
        },
        {
          "internalType": "address",
          "name": "to",
          "type": "address"
        },
        {
          "internalType": "uint256",
          "name": "tokenId",
          "type": "uint256"
        }
      ],
      "name": "transferFrom",
      "outputs": [],
      "stateMutability": "nonpayable",
      "type": "function"
    },
    {
      "inputs": [
        {
          "internalType": "address",
          "name": "newOwner",
          "type": "address"
        }
      ],
      "name": "transferOwnership",
      "outputs": [],
      "stateMutability": "nonpayable",
      "type": "function"
    },
    {
      "inputs": [
        {
          "internalType": "uint256",
          "name": "_creditId",
          "type": "uint256"
        },
        {
          "internalType": "uint256",
          "name": "_price",
          "type": "uint256"
        },
        {
          "internalType": "string",
          "name": "_tokenURI",
          "type": "string"
        }
      ],
      "name": "listNFT",
      "outputs": [],
      "stateMutability": "nonpayable",
      "type": "function"
    },
    {
      "inputs": [
        {
          "internalType": "uint256",
          "name": "_tokenId",
          "type": "uint256"
        }
      ],
      "name": "buyNFT",
      "outputs": [],
      "stateMutability": "payable",
      "type": "function",
      "payable": true
    }
  ],
  "bytecode": "0x60806040523480156200001157600080fd5b50604051620039ae380380620039ae8339818101604052810190620000379190620002d4565b6040518060400160405280600981526020017f436172626f6e4e465400000000000000000000000000000000000000000000008152506040518060400160405280600481526020017f434e4654000000000000000000000000000000000000000000000000000000008152508160009080519060200190620000bb9291906200020d565b508060019080519060200190620000d49291906200020d565b505050620000f7620000eb6200013f60201b60201c565b6200014760201b60201c565b80600860006101000a81548173ffffffffffffffffffffffffffffffffffffffff021916908373ffffffffffffffffffffffffffffffffffffffff16021790555050620003b3565b600033905090565b6000600760009054906101000a900473ffffffffffffffffffffffffffffffffffffffff16905081600760006101000a81548173ffffffffffffffffffffffffffffffffffffffff021916908373ffffffffffffffffffffffffffffffffffffffff1602179055508173ffffffffffffffffffffffffffffffffffffffff168173ffffffffffffffffffffffffffffffffffffffff167f8be0079c531659141344cd1fd0a4f28419497f9722a3daafe3b4186f6b6457e060405160405180910390a35050565b8280546200021b9062000334565b90600052602060002090601f0160209004810192826200023f57600085556200028b565b82601f106200025a57805160ff19168380011785556200028b565b828001600101855582156200028b579182015b828111156200028a5782518255916020019190600101906200026d565b5b5090506200029a91906200029e565b5090565b5b80821115620002b95760008160009055506001016200029f565b5090565b600081519050620002ce8162000399565b92915050565b600060208284031215620002e757600080fd5b6000620002f784828501620002bd565b91505092915050565b60006200030d8262000314565b9050919050565b600073ffffffffffffffffffffffffffffffffffffffff82169050919050565b600060028204905060018216806200034d57607f821691505b602082108114156200036457620003636200036a565b5b50919050565b7f4e487b7100000000000000000000000000000000000000000000000000000000600052602260045260246000fd5b620003a48162000300565b8114620003b057600080fd5b50565b6135eb80620003c36000396000f3fe60806040526004361061012a5760003560e01c80636352211e116100ab57806395d89b411161006f57806395d89b41146103e7578063a22cb46514610412578063b88d4fde1461043b578063c87b56dd14610464578063e985e9c5146104a1578063f2fde38b146104de5761012a565b80636352211e1461030057806370a082311461033d578063715018a61461037a57806375794a3c146103915780638da5cb5b146103bc5761012a565b80632629ef3f116100f25780632629ef3f14610226578063265aa6211461024f57806342842e0e1461029057806348869eff146102b957806351ed8288146102e45761012a565b806301ffc9a71461012f57806306fdde031461016c578063081812fc14610197578063095ea7b3146101d457806323b872dd146101fd575b600080fd5b34801561013b57600080fd5b5061015660048036038101906101519190612677565b610507565b6040516101639190612b16565b60405180910390f35b34801561017857600080fd5b50610181610568565b60405161018e9190612b4c565b60405180910390f35b3480156101a357600080fd5b506101be60048036038101906101b991906126c9565b6105fa565b6040516101cb9190612aaf565b60405180910390f35b3480156101e057600080fd5b506101fb60048036038101906101f6919061263b565b610640565b005b34801561020957600080fd5b50610224600480360381019061021f9190612535565b610758565b005b34801561023257600080fd5b5061024d600480360381019061024891906126f2565b6107b8565b005b34801561025b57600080fd5b50610276600480360381019061027191906126c9565b610961565b604051610287959493929190612e09565b60405180910390f35b34801561029c57600080fd5b506102b760048036038101906102b29190612535565b6109c4565b005b3480156102c557600080fd5b506102ce6109e4565b6040516102db9190612b31565b60405180910390f35b6102fe60048036038101906102f991906126c9565b610a0a565b005b34801561030c57600080fd5b50610327600480360381019061032291906126c9565b610c61565b6040516103349190612aaf565b60405180910390f35b34801561034957600080fd5b50610364600480360381019061035f91906124d0565b610ce8565b6040516103719190612d8e565b60405180910390f35b34801561038657600080fd5b5061038f610da0565b005b34801561039d57600080fd5b506103a6610db4565b6040516103b39190612d8e565b60405180910390f35b3480156103c857600080fd5b506103d1610dba565b6040516103de9190612aaf565b60405180910390f35b3480156103f357600080fd5b506103fc610de4565b6040516104099190612b4c565b60405180910390f35b34801561041e57600080fd5b50610439600480360381019061043491906125ff565b610e76565b005b34801561044757600080fd5b50610462600480360381019061045d9190612584565b610e8c565b005b34801561047057600080fd5b5061048b600480360381019061048691906126c9565b610eee565b6040516104989190612b4c565b60405180910390f35b3480156104ad57600080fd5b506104c860048036038101906104c391906124f9565b611001565b6040516104d59190612b16565b60405180910390f35b3480156104ea57600080fd5b50610505600480360381019061050091906124d0565b611095565b005b6000634906490660e01b7bffffffffffffffffffffffffffffffffffffffffffffffffffffffff1916827bffffffffffffffffffffffffffffffffffffffffffffffffffffffff19161480610561575061056082611119565b5b9050919050565b60606000805461057790613000565b80601f01602080910402602001604051908101604052809291908181526020018280546105a390613000565b80156105f05780601f106105c5576101008083540402835291602001916105f0565b820191906000526020600020905b8154815290600101906020018083116105d357829003601f168201915b5050505050905090565b6000610605826111fb565b6004600083815260200190815260200160002060009054906101000a900473ffffffffffffffffffffffffffffffffffffffff169050919050565b600061064b82610c61565b90508073ffffffffffffffffffffffffffffffffffffffff168373ffffffffffffffffffffffffffffffffffffffff1614156106bc576040517f08c379a00000000000000000000000000000000000000000000000000000000081526004016106b390612d4e565b60405180910390fd5b8073ffffffffffffffffffffffffffffffffffffffff166106db611246565b73ffffffffffffffffffffffffffffffffffffffff16148061070a575061070981610704611246565b611001565b5b610749576040517f08c379a000000000000000000000000000000000000000000000000000000000815260040161074090612d6e565b60405180910390fd5b610753838361124e565b505050565b610769610763611246565b82611307565b6107a8576040517f08c379a000000000000000000000000000000000000000000000000000000000815260040161079f90612b6e565b60405180910390fd5b6107b383838361139c565b505050565b600082116107fb576040517f08c379a00000000000000000000000000000000000000000000000000000000081526004016107f290612b8e565b60405180910390fd5b6000600a5490506040518060a001604052808281526020018581526020018481526020013373ffffffffffffffffffffffffffffffffffffffff168152602001600115158152506009600083815260200190815260200160002060008201518160000155602082015181600101556040820151816002015560608201518160030160006101000a81548173ffffffffffffffffffffffffffffffffffffffff021916908373ffffffffffffffffffffffffffffffffffffffff16021790555060808201518160030160146101000a81548160ff0219169083151502179055509050506108e73382611696565b6108f181836118b4565b600a600081548092919061090490613063565b91905055503373ffffffffffffffffffffffffffffffffffffffff167f5fc076273da30f9495a795f70cf6fedc3cec996f6a27ddc637c7e6328e77006d82868660405161095393929190612dd2565b60405180910390a250505050565b60096020528060005260406000206000915090508060000154908060010154908060020154908060030160009054906101000a900473ffffffffffffffffffffffffffffffffffffffff16908060030160149054906101000a900460ff16905085565b6109df83838360405180602001604052806000815250610e8c565b505050565b600860009054906101000a900473ffffffffffffffffffffffffffffffffffffffff1681565b60006009600083815260200190815260200160002090508060030160149054906101000a900460ff16610a72576040517f08c379a0000000000000000000000000000000000000000000000000000000008152600401610a6990612d0e565b60405180910390fd5b8060020154341015610ab9576040517f08c379a0000000000000000000000000000000000000000000000000000000008152600401610ab090612c8e565b60405180910390fd5b8060030160009054906101000a900473ffffffffffffffffffffffffffffffffffffffff1673ffffffffffffffffffffffffffffffffffffffff166108fc349081150290604051600060405180830381858888f19350505050158015610b23573d6000803e3d6000fd5b50600860009054906101000a900473ffffffffffffffffffffffffffffffffffffffff1673ffffffffffffffffffffffffffffffffffffffff1663733934228260010154336040518363ffffffff1660e01b8152600401610b85929190612da9565b600060405180830381600087803b158015610b9f57600080fd5b505af1158015610bb3573d6000803e3d6000fd5b5050505060008160030160146101000a81548160ff021916908315150217905550610c038160030160009054906101000a900473ffffffffffffffffffffffffffffffffffffffff16338461139c565b3373ffffffffffffffffffffffffffffffffffffffff167fcbe87ada5f3ee71caed4f1443d212d022ecdd1d72742c75a756c186bc2e4dff88383600101548460020154604051610c5593929190612dd2565b60405180910390a25050565b600080610c6d8361195f565b9050600073ffffffffffffffffffffffffffffffffffffffff168173ffffffffffffffffffffffffffffffffffffffff161415610cdf576040517f08c379a0000000000000000000000000000000000000000000000000000000008152600401610cd690612d2e565b60405180910390fd5b80915050919050565b60008073ffffffffffffffffffffffffffffffffffffffff168273ffffffffffffffffffffffffffffffffffffffff161415610d59576040517f08c379a0000000000000000000000000000000000000000000000000000000008152600401610d5090612c6e565b60405180910390fd5b600360008373ffffffffffffffffffffffffffffffffffffffff1673ffffffffffffffffffffffffffffffffffffffff168152602001908152602001600020549050919050565b610da861199c565b610db26000611a1a565b565b600a5481565b6000600760009054906101000a900473ffffffffffffffffffffffffffffffffffffffff16905090565b606060018054610df390613000565b80601f0160208091040260200160405190810160405280929190818152602001828054610e1f90613000565b8015610e6c5780601f10610e4157610100808354040283529160200191610e6c565b820191906000526020600020905b815481529060010190602001808311610e4f57829003601f168201915b5050505050905090565b610e88610e81611246565b8383611ae0565b5050565b610e9d610e97611246565b83611307565b610edc576040517f08c379a0000000000000000000000000000000000000000000000000000000008152600401610ed390612b6e565b60405180910390fd5b610ee884848484611c4d565b50505050565b6060610ef9826111fb565b6000600660008481526020019081526020016000208054610f1990613000565b80601f0160208091040260200160405190810160405280929190818152602001828054610f4590613000565b8015610f925780601f10610f6757610100808354040283529160200191610f92565b820191906000526020600020905b815481529060010190602001808311610f7557829003601f168201915b505050505090506000610fa3611ca9565b9050600081511415610fb9578192505050610ffc565b600082511115610fee578082604051602001610fd6929190612a8b565b60405160208183030381529060405292505050610ffc565b610ff784611cc0565b925050505b919050565b6000600560008473ffffffffffffffffffffffffffffffffffffffff1673ffffffffffffffffffffffffffffffffffffffff16815260200190815260200160002060008373ffffffffffffffffffffffffffffffffffffffff1673ffffffffffffffffffffffffffffffffffffffff16815260200190815260200160002060009054906101000a900460ff16905092915050565b61109d61199c565b600073ffffffffffffffffffffffffffffffffffffffff168173ffffffffffffffffffffffffffffffffffffffff16141561110d576040517f08c379a000000000000000000000000000000000000000000000000000000000815260040161110490612bce565b60405180910390fd5b61111681611a1a565b50565b60007f80ac58cd000000000000000000000000000000000000000000000000000000007bffffffffffffffffffffffffffffffffffffffffffffffffffffffff1916827bffffffffffffffffffffffffffffffffffffffffffffffffffffffff191614806111e457507f5b5e139f000000000000000000000000000000000000000000000000000000007bffffffffffffffffffffffffffffffffffffffffffffffffffffffff1916827bffffffffffffffffffffffffffffffffffffffffffffffffffffffff1916145b806111f457506111f382611d28565b5b9050919050565b61120481611d92565b611243576040517f08c379a000000000000000000000000000000000000000000000000000000000815260040161123a90612d2e565b60405180910390fd5b50565b600033905090565b816004600083815260200190815260200160002060006101000a81548173ffffffffffffffffffffffffffffffffffffffff021916908373ffffffffffffffffffffffffffffffffffffffff160217905550808273ffffffffffffffffffffffffffffffffffffffff166112c183610c61565b73ffffffffffffffffffffffffffffffffffffffff167f8c5be1e5ebec7d5bd14f71427d1e84f3dd0314c0f7b2291e5b200ac8c7c3b92560405160405180910390a45050565b60008061131383610c61565b90508073ffffffffffffffffffffffffffffffffffffffff168473ffffffffffffffffffffffffffffffffffffffff16148061135557506113548185611001565b5b8061139357508373ffffffffffffffffffffffffffffffffffffffff1661137b846105fa565b73ffffffffffffffffffffffffffffffffffffffff16145b91505092915050565b8273ffffffffffffffffffffffffffffffffffffffff166113bc82610c61565b73ffffffffffffffffffffffffffffffffffffffff1614611412576040517f08c379a000000000000000000000000000000000000000000000000000000000815260040161140990612bee565b60405180910390fd5b600073ffffffffffffffffffffffffffffffffffffffff168273ffffffffffffffffffffffffffffffffffffffff161415611482576040517f08c379a000000000000000000000000000000000000000000000000000000000815260040161147990612c2e565b60405180910390fd5b61148f8383836001611dd3565b8273ffffffffffffffffffffffffffffffffffffffff166114af82610c61565b73ffffffffffffffffffffffffffffffffffffffff1614611505576040517f08c379a00000000000000000000000000000000000000000000000000000000081526004016114fc90612bee565b60405180910390fd5b6004600082815260200190815260200160002060006101000a81549073ffffffffffffffffffffffffffffffffffffffff02191690556001600360008573ffffffffffffffffffffffffffffffffffffffff1673ffffffffffffffffffffffffffffffffffffffff168152602001908152602001600020600082825403925050819055506001600360008473ffffffffffffffffffffffffffffffffffffffff1673ffffffffffffffffffffffffffffffffffffffff16815260200190815260200160002060008282540192505081905550816002600083815260200190815260200160002060006101000a81548173ffffffffffffffffffffffffffffffffffffffff021916908373ffffffffffffffffffffffffffffffffffffffff160217905550808273ffffffffffffffffffffffffffffffffffffffff168473ffffffffffffffffffffffffffffffffffffffff167fddf252ad1be2c89b69c2b068fc378daa952ba7f163c4a11628f55a4df523b3ef60405160405180910390a46116918383836001611dd9565b505050565b600073ffffffffffffffffffffffffffffffffffffffff168273ffffffffffffffffffffffffffffffffffffffff161415611706576040517f08c379a00000000000000000000000000000000000000000000000000000000081526004016116fd90612cce565b60405180910390fd5b61170f81611d92565b1561174f576040517f08c379a000000000000000000000000000000000000000000000000000000000815260040161174690612c0e565b60405180910390fd5b61175d600083836001611dd3565b61176681611d92565b156117a6576040517f08c379a000000000000000000000000000000000000000000000000000000000815260040161179d90612c0e565b60405180910390fd5b6001600360008473ffffffffffffffffffffffffffffffffffffffff1673ffffffffffffffffffffffffffffffffffffffff16815260200190815260200160002060008282540192505081905550816002600083815260200190815260200160002060006101000a81548173ffffffffffffffffffffffffffffffffffffffff021916908373ffffffffffffffffffffffffffffffffffffffff160217905550808273ffffffffffffffffffffffffffffffffffffffff16600073ffffffffffffffffffffffffffffffffffffffff167fddf252ad1be2c89b69c2b068fc378daa952ba7f163c4a11628f55a4df523b3ef60405160405180910390a46118b0600083836001611dd9565b5050565b6118bd82611d92565b6118fc576040517f08c379a00000000000000000000000000000000000000000000000000000000081526004016118f390612cae565b60405180910390fd5b806006600084815260200190815260200160002090805190602001906119239291906122f4565b507ff8e1a15aba9398e019f0b49df1a4fde98ee17ae345cb5f6b5e2c27f5033e8ce7826040516119539190612d8e565b60405180910390a15050565b60006002600083815260200190815260200160002060009054906101000a900473ffffffffffffffffffffffffffffffffffffffff169050919050565b6119a4611246565b73ffffffffffffffffffffffffffffffffffffffff166119c2610dba565b73ffffffffffffffffffffffffffffffffffffffff1614611a18576040517f08c379a0000000000000000000000000000000000000000000000000000000008152600401611a0f90612cee565b60405180910390fd5b565b6000600760009054906101000a900473ffffffffffffffffffffffffffffffffffffffff16905081600760006101000a81548173ffffffffffffffffffffffffffffffffffffffff021916908373ffffffffffffffffffffffffffffffffffffffff1602179055508173ffffffffffffffffffffffffffffffffffffffff168173ffffffffffffffffffffffffffffffffffffffff167f8be0079c531659141344cd1fd0a4f28419497f9722a3daafe3b4186f6b6457e060405160405180910390a35050565b8173ffffffffffffffffffffffffffffffffffffffff168373ffffffffffffffffffffffffffffffffffffffff161415611b4f576040517f08c379a0000000000000000000000000000000000000000000000000000000008152600401611b4690612c4e565b60405180910390fd5b80600560008573ffffffffffffffffffffffffffffffffffffffff1673ffffffffffffffffffffffffffffffffffffffff16815260200190815260200160002060008473ffffffffffffffffffffffffffffffffffffffff1673ffffffffffffffffffffffffffffffffffffffff16815260200190815260200160002060006101000a81548160ff0219169083151502179055508173ffffffffffffffffffffffffffffffffffffffff168373ffffffffffffffffffffffffffffffffffffffff167f17307eab39ab6107e8899845ad3d59bd9653f200f220920489ca2b5937696c3183604051611c409190612b16565b60405180910390a3505050565b611c5884848461139c565b611c6484848484611ddf565b611ca3576040517f08c379a0000000000000000000000000000000000000000000000000000000008152600401611c9a90612bae565b60405180910390fd5b50505050565b606060405180602001604052806000815250905090565b6060611ccb826111fb565b6000611cd5611ca9565b90506000815111611cf55760405180602001604052806000815250611d20565b80611cff84611f76565b604051602001611d10929190612a8b565b6040516020818303038152906040525b915050919050565b60007f01ffc9a7000000000000000000000000000000000000000000000000000000007bffffffffffffffffffffffffffffffffffffffffffffffffffffffff1916827bffffffffffffffffffffffffffffffffffffffffffffffffffffffff1916149050919050565b60008073ffffffffffffffffffffffffffffffffffffffff16611db48361195f565b73ffffffffffffffffffffffffffffffffffffffff1614159050919050565b50505050565b50505050565b6000611e008473ffffffffffffffffffffffffffffffffffffffff1661209a565b15611f69578373ffffffffffffffffffffffffffffffffffffffff1663150b7a02611e29611246565b8786866040518563ffffffff1660e01b8152600401611e4b9493929190612aca565b602060405180830381600087803b158015611e6557600080fd5b505af1925050508015611e9657506040513d601f19601f82011682018060405250810190611e9391906126a0565b60015b611f19573d8060008114611ec6576040519150601f19603f3d011682016040523d82523d6000602084013e611ecb565b606091505b50600081511415611f11576040517f08c379a0000000000000000000000000000000000000000000000000000000008152600401611f0890612bae565b60405180910390fd5b805181602001fd5b63150b7a0260e01b7bffffffffffffffffffffffffffffffffffffffffffffffffffffffff1916817bffffffffffffffffffffffffffffffffffffffffffffffffffffffff191614915050611f6e565b600190505b949350505050565b606060006001611f85846120bd565b01905060008167ffffffffffffffff811115611fca577f4e487b7100000000000000000000000000000000000000000000000000000000600052604160045260246000fd5b6040519080825280601f01601f191660200182016040528015611ffc5781602001600182028036833780820191505090505b509050600082602001820190505b60011561208f578080600190039150507f3031323334353637383961626364656600000000000000000000000000000000600a86061a8153600a8581612079577f4e487b7100000000000000000000000000000000000000000000000000000000600052601260045260246000fd5b049450600085141561208a5761208f565b61200a565b819350505050919050565b6000808273ffffffffffffffffffffffffffffffffffffffff163b119050919050565b600080600090507a184f03e93ff9f4daa797ed6e38ed64bf6a1f0100000000000000008310612141577a184f03e93ff9f4daa797ed6e38ed64bf6a1f0100000000000000008381612137577f4e487b7100000000000000000000000000000000000000000000000000000000600052601260045260246000fd5b0492506040810190505b6d04ee2d6d415b85acef810000000083106121a4576d04ee2d6d415b85acef8100000000838161219a577f4e487b7100000000000000000000000000000000000000000000000000000000600052601260045260246000fd5b0492506020810190505b662386f26fc1000083106121f957662386f26fc1000083816121ef577f4e487b7100000000000000000000000000000000000000000000000000000000600052601260045260246000fd5b0492506010810190505b6305f5e1008310612248576305f5e100838161223e577f4e487b7100000000000000000000000000000000000000000000000000000000600052601260045260246000fd5b0492506008810190505b6127108310612293576127108381612289577f4e487b7100000000000000000000000000000000000000000000000000000000600052601260045260246000fd5b0492506004810190505b606483106122dc57606483816122d2577f4e487b7100000000000000000000000000000000000000000000000000000000600052601260045260246000fd5b0492506002810190505b600a83106122eb576001810190505b80915050919050565b82805461230090613000565b90600052602060002090601f0160209004810192826123225760008555612369565b82601f1061233b57805160ff1916838001178555612369565b82800160010185558215612369579182015b8281111561236857825182559160200191906001019061234d565b5b509050612376919061237a565b5090565b5b8082111561239357600081600090555060010161237b565b5090565b60006123aa6123a584612e81565b612e5c565b9050828152602081018484840111156123c257600080fd5b6123cd848285612fbe565b509392505050565b60006123e86123e384612eb2565b612e5c565b90508281526020810184848401111561240057600080fd5b61240b848285612fbe565b509392505050565b60008135905061242281613559565b92915050565b60008135905061243781613570565b92915050565b60008135905061244c81613587565b92915050565b60008151905061246181613587565b92915050565b600082601f83011261247857600080fd5b8135612488848260208601612397565b91505092915050565b600082601f8301126124a257600080fd5b81356124b28482602086016123d5565b91505092915050565b6000813590506124ca8161359e565b92915050565b6000602082840312156124e257600080fd5b60006124f084828501612413565b91505092915050565b6000806040838503121561250c57600080fd5b600061251a85828601612413565b925050602061252b85828601612413565b9150509250929050565b60008060006060848603121561254a57600080fd5b600061255886828701612413565b935050602061256986828701612413565b925050604061257a868287016124bb565b9150509250925092565b6000806000806080858703121561259a57600080fd5b60006125a887828801612413565b94505060206125b987828801612413565b93505060406125ca878288016124bb565b925050606085013567ffffffffffffffff8111156125e757600080fd5b6125f387828801612467565b91505092959194509250565b6000806040838503121561261257600080fd5b600061262085828601612413565b925050602061263185828601612428565b9150509250929050565b6000806040838503121561264e57600080fd5b600061265c85828601612413565b925050602061266d858286016124bb565b9150509250929050565b60006020828403121561268957600080fd5b60006126978482850161243d565b91505092915050565b6000602082840312156126b257600080fd5b60006126c084828501612452565b91505092915050565b6000602082840312156126db57600080fd5b60006126e9848285016124bb565b91505092915050565b60008060006060848603121561270757600080fd5b6000612715868287016124bb565b9350506020612726868287016124bb565b925050604084013567ffffffffffffffff81111561274357600080fd5b61274f86828701612491565b9150509250925092565b61276281612f26565b82525050565b61277181612f38565b82525050565b600061278282612ee3565b61278c8185612ef9565b935061279c818560208601612fcd565b6127a581613139565b840191505092915050565b6127b981612f9a565b82525050565b60006127ca82612eee565b6127d48185612f0a565b93506127e4818560208601612fcd565b6127ed81613139565b840191505092915050565b600061280382612eee565b61280d8185612f1b565b935061281d818560208601612fcd565b80840191505092915050565b6000612836602d83612f0a565b91506128418261314a565b604082019050919050565b6000612859601f83612f0a565b915061286482613199565b602082019050919050565b600061287c603283612f0a565b9150612887826131c2565b604082019050919050565b600061289f602683612f0a565b91506128aa82613211565b604082019050919050565b60006128c2602583612f0a565b91506128cd82613260565b604082019050919050565b60006128e5601c83612f0a565b91506128f0826132af565b602082019050919050565b6000612908602483612f0a565b9150612913826132d8565b604082019050919050565b600061292b601983612f0a565b915061293682613327565b602082019050919050565b600061294e602983612f0a565b915061295982613350565b604082019050919050565b6000612971601d83612f0a565b915061297c8261339f565b602082019050919050565b6000612994602e83612f0a565b915061299f826133c8565b604082019050919050565b60006129b7602083612f0a565b91506129c282613417565b602082019050919050565b60006129da602083612f0a565b91506129e582613440565b602082019050919050565b60006129fd601d83612f0a565b9150612a0882613469565b602082019050919050565b6000612a20601883612f0a565b9150612a2b82613492565b602082019050919050565b6000612a43602183612f0a565b9150612a4e826134bb565b604082019050919050565b6000612a66603d83612f0a565b9150612a718261350a565b604082019050919050565b612a8581612f90565b82525050565b6000612a9782856127f8565b9150612aa382846127f8565b91508190509392505050565b6000602082019050612ac46000830184612759565b92915050565b6000608082019050612adf6000830187612759565b612aec6020830186612759565b612af96040830185612a7c565b8181036060830152612b0b8184612777565b905095945050505050565b6000602082019050612b2b6000830184612768565b92915050565b6000602082019050612b4660008301846127b0565b92915050565b60006020820190508181036000830152612b6681846127bf565b905092915050565b60006020820190508181036000830152612b8781612829565b9050919050565b60006020820190508181036000830152612ba78161284c565b9050919050565b60006020820190508181036000830152612bc78161286f565b9050919050565b60006020820190508181036000830152612be781612892565b9050919050565b60006020820190508181036000830152612c07816128b5565b9050919050565b60006020820190508181036000830152612c27816128d8565b9050919050565b60006020820190508181036000830152612c47816128fb565b9050919050565b60006020820190508181036000830152612c678161291e565b9050919050565b60006020820190508181036000830152612c8781612941565b9050919050565b60006020820190508181036000830152612ca781612964565b9050919050565b60006020820190508181036000830152612cc781612987565b9050919050565b60006020820190508181036000830152612ce7816129aa565b9050919050565b60006020820190508181036000830152612d07816129cd565b9050919050565b60006020820190508181036000830152612d27816129f0565b9050919050565b60006020820190508181036000830152612d4781612a13565b9050919050565b60006020820190508181036000830152612d6781612a36565b9050919050565b60006020820190508181036000830152612d8781612a59565b9050919050565b6000602082019050612da36000830184612a7c565b92915050565b6000604082019050612dbe6000830185612a7c565b612dcb6020830184612759565b9392505050565b6000606082019050612de76000830186612a7c565b612df46020830185612a7c565b612e016040830184612a7c565b949350505050565b600060a082019050612e1e6000830188612a7c565b612e2b6020830187612a7c565b612e386040830186612a7c565b612e456060830185612759565b612e526080830184612768565b9695505050505050565b6000612e66612e77565b9050612e728282613032565b919050565b6000604051905090565b600067ffffffffffffffff821115612e9c57612e9b61310a565b5b612ea582613139565b9050602081019050919050565b600067ffffffffffffffff821115612ecd57612ecc61310a565b5b612ed682613139565b9050602081019050919050565b600081519050919050565b600081519050919050565b600082825260208201905092915050565b600082825260208201905092915050565b600081905092915050565b6000612f3182612f70565b9050919050565b60008115159050919050565b60007fffffffff0000000000000000000000000000000000000000000000000000000082169050919050565b600073ffffffffffffffffffffffffffffffffffffffff82169050919050565b6000819050919050565b6000612fa582612fac565b9050919050565b6000612fb782612f70565b9050919050565b82818337600083830152505050565b60005b83811015612feb578082015181840152602081019050612fd0565b83811115612ffa576000848401525b50505050565b6000600282049050600182168061301857607f821691505b6020821081141561302c5761302b6130db565b5b50919050565b61303b82613139565b810181811067ffffffffffffffff8211171561305a5761305961310a565b5b80604052505050565b600061306e82612f90565b91507fffffffffffffffffffffffffffffffffffffffffffffffffffffffffffffffff8214156130a1576130a06130ac565b5b600182019050919050565b7f4e487b7100000000000000000000000000000000000000000000000000000000600052601160045260246000fd5b7f4e487b7100000000000000000000000000000000000000000000000000000000600052602260045260246000fd5b7f4e487b7100000000000000000000000000000000000000000000000000000000600052604160045260246000fd5b6000601f19601f8301169050919050565b7f4552433732313a2063616c6c6572206973206e6f7420746f6b656e206f776e6560008201527f72206f7220617070726f76656400000000000000000000000000000000000000602082015250565b7f5072696365206d7573742062652067726561746572207468616e207a65726f00600082015250565b7f4552433732313a207472616e7366657220746f206e6f6e20455243373231526560008201527f63656976657220696d706c656d656e7465720000000000000000000000000000602082015250565b7f4f776e61626c653a206e6577206f776e657220697320746865207a65726f206160008201527f6464726573730000000000000000000000000000000000000000000000000000602082015250565b7f4552433732313a207472616e736665722066726f6d20696e636f72726563742060008201527f6f776e6572000000000000000000000000000000000000000000000000000000602082015250565b7f4552433732313a20746f6b656e20616c7265616479206d696e74656400000000600082015250565b7f4552433732313a207472616e7366657220746f20746865207a65726f2061646460008201527f7265737300000000000000000000000000000000000000000000000000000000602082015250565b7f4552433732313a20617070726f766520746f2063616c6c657200000000000000600082015250565b7f4552433732313a2061646472657373207a65726f206973206e6f74206120766160008201527f6c6964206f776e65720000000000000000000000000000000000000000000000602082015250565b7f496e73756666696369656e742066756e647320746f20627579204e4654000000600082015250565b7f45524337323155524953746f726167653a2055524920736574206f66206e6f6e60008201527f6578697374656e7420746f6b656e000000000000000000000000000000000000602082015250565b7f4552433732313a206d696e7420746f20746865207a65726f2061646472657373600082015250565b7f4f776e61626c653a2063616c6c6572206973206e6f7420746865206f776e6572600082015250565b7f4e4654206973206e6f7420617661696c61626c6520666f722073616c65000000600082015250565b7f4552433732313a20696e76616c696420746f6b656e2049440000000000000000600082015250565b7f4552433732313a20617070726f76616c20746f2063757272656e74206f776e6560008201527f7200000000000000000000000000000000000000000000000000000000000000602082015250565b7f4552433732313a20617070726f76652063616c6c6572206973206e6f7420746f60008201527f6b656e206f776e6572206f7220617070726f76656420666f7220616c6c000000602082015250565b61356281612f26565b811461356d57600080fd5b50565b61357981612f38565b811461358457600080fd5b50565b61359081612f44565b811461359b57600080fd5b50565b6135a781612f90565b81146135b257600080fd5b5056fea2646970667358221220546fdc87494af84e3906d00a86784ebd88a28292091aa955ce6183b13de3f5f964736f6c63430008010033",
  "immutableReferences": {},
  "source": "// SPDX-License-Identifier: UNLICENSED\r\npragma solidity ^0.8.0;\r\n\r\nimport \"./ICarbonCreditExchange.sol\";\r\nimport \"@openzeppelin/contracts/token/ERC721/extensions/ERC721URIStorage.sol\";\r\nimport \"@openzeppelin/contracts/access/Ownable.sol\";\r\n\r\ncontract CarbonNftMarketplace is ERC721URIStorage, Ownable {\r\n    struct NFT {\r\n        uint tokenId;\r\n        uint creditId;\r\n        uint price;\r\n        address seller;\r\n        bool isAvailable;\r\n    }\r\n\r\n    ICarbonCreditExchange public carbonCreditExchange;\r\n    mapping(uint => NFT) public nfts;\r\n    uint public nextTokenId;\r\n\r\n    event NFTListed(uint tokenId, uint creditId, uint price, address indexed seller);\r\n    event NFTSold(uint tokenId, uint creditId, uint price, address indexed buyer);\r\n\r\n    constructor(address _carbonCreditExchange) ERC721(\"CarbonNFT\", \"CNFT\") {\r\n        carbonCreditExchange = ICarbonCreditExchange(_carbonCreditExchange);\r\n    }\r\n\r\n    function listNFT(uint _creditId, uint _price, string memory _tokenURI) public {\r\n        require(_price > 0, \"Price must be greater than zero\");\r\n\r\n        uint tokenId = nextTokenId;\r\n        nfts[tokenId] = NFT({\r\n            tokenId: tokenId,\r\n            creditId: _creditId,\r\n            price: _price,\r\n            seller: msg.sender,\r\n            isAvailable: true\r\n        });\r\n\r\n        _mint(msg.sender, tokenId);\r\n        _setTokenURI(tokenId, _tokenURI); // This function is now part of ERC721URIStorage\r\n\r\n        nextTokenId++;\r\n        emit NFTListed(tokenId, _creditId, _price, msg.sender);\r\n    }\r\n\r\n    function buyNFT(uint _tokenId) public payable {\r\n        NFT storage nft = nfts[_tokenId];\r\n        require(nft.isAvailable, \"NFT is not available for sale\");\r\n        require(msg.value >= nft.price, \"Insufficient funds to buy NFT\");\r\n\r\n        payable(nft.seller).transfer(msg.value);\r\n        carbonCreditExchange.marketplaceTransfer(nft.creditId, msg.sender);\r\n\r\n        nft.isAvailable = false;\r\n        _transfer(nft.seller, msg.sender, _tokenId);\r\n\r\n        emit NFTSold(_tokenId, nft.creditId, nft.price, msg.sender);\r\n    }\r\n}\r\n",
  "sourcePath": "C:\\Users\\ndvc0\\OneDrive\\Desktop\\Blockchain\\carbon-credit-exchange\\contracts\\CarbonNftMarketplace.sol",
  "compiler": {
    "name": "solc",
    "version": "0.8.1+commit.df193b15.Emscripten.clang"
  },
  "schemaVersion": "3.4.16",
  "updatedAt": "2024-11-18T22:18:54.304Z",
  "networkType": "ethereum",
  "devdoc": {
    "kind": "dev",
    "methods": {
      "approve(address,uint256)": {
        "details": "See {IERC721-approve}."
      },
      "balanceOf(address)": {
        "details": "See {IERC721-balanceOf}."
      },
      "getApproved(uint256)": {
        "details": "See {IERC721-getApproved}."
      },
      "isApprovedForAll(address,address)": {
        "details": "See {IERC721-isApprovedForAll}."
      },
      "name()": {
        "details": "See {IERC721Metadata-name}."
      },
      "owner()": {
        "details": "Returns the address of the current owner."
      },
      "ownerOf(uint256)": {
        "details": "See {IERC721-ownerOf}."
      },
      "renounceOwnership()": {
        "details": "Leaves the contract without owner. It will not be possible to call `onlyOwner` functions. Can only be called by the current owner. NOTE: Renouncing ownership will leave the contract without an owner, thereby disabling any functionality that is only available to the owner."
      },
      "safeTransferFrom(address,address,uint256)": {
        "details": "See {IERC721-safeTransferFrom}."
      },
      "safeTransferFrom(address,address,uint256,bytes)": {
        "details": "See {IERC721-safeTransferFrom}."
      },
      "setApprovalForAll(address,bool)": {
        "details": "See {IERC721-setApprovalForAll}."
      },
      "supportsInterface(bytes4)": {
        "details": "See {IERC165-supportsInterface}"
      },
      "symbol()": {
        "details": "See {IERC721Metadata-symbol}."
      },
      "tokenURI(uint256)": {
        "details": "See {IERC721Metadata-tokenURI}."
      },
      "transferFrom(address,address,uint256)": {
        "details": "See {IERC721-transferFrom}."
      },
      "transferOwnership(address)": {
        "details": "Transfers ownership of the contract to a new account (`newOwner`). Can only be called by the current owner."
      }
    },
    "version": 1
  },
  "userdoc": {
    "kind": "user",
    "methods": {},
    "version": 1
  }
}